:020000040000fa
:080000005001040000000000a3
:020000040000fa
:100200003e0e040000000000220f04000000000069
:10021000e617040000000000463004000000000063
:10022000503204000000000094320400000000007e
:100230002c460400000000005c43040000000000a5
:10024000f84a0400000000005450040000000000c0
:100250006250040000000000565e04000000000030
:100260006c5e040000000000b460040000000000a8
:10027000d26004000000000090470400000000006d
:100280002a4704000000000074660400000000001b
:10029000aa46040000000000866804000000000078
:1002a0002fa52100807922000001880000000000b5
:1002b000050007000c000700ca180200000000003b
:1002c0000040da000000fe004440a90000002000c9
:1002d0000000e0000300320000002000a0018800c0
:1002e0004440a80000000600a012210011002000d8
:1002f0001600370062004000e0804800910188004d
:100300009001ba0062004000e0804800910188003e
:100310009002ba0062004000e08048000002eb005a
:100320006028e10005003a008301e900070033007e
:10033000038009000059eb00040037006128e10048
:10034000010032000082eb000500070091018800e7
:100350001001ba000200e000e6ff3a0000000500cc
:10036000910188008002780062004000e08048002f
:100370003559ba008301e900080032002559ba0056
:100380008301e900050032000400e000f4ff3200c0
:1003900015d9ba008301e900f1ff3a000000060018
:1003a000889fbe00e30440000900a100808f540034
:1003b00049003600e38f540001003e004900200050
:1003c000b0c180000000e000020032008000780030
:1003d0000c0037008183210003003700908f540008
:1003e000230036008080e800110078001100e00052
:1003f000faff3a000f003700928f54001c003600bd
:100400008280e800110178001100e000faff3a0054
:10041000100178008183210003003700908f540081
:10042000130036008080e80011007800820f500031
:10043000faff3a00a8c18000890f54000100310082
:1004400009047800080078006b0007000000e00055
:1004500004003a00890f54001f0032000804d10044
:10046000f5ff37000818780030000700d4ff370088
:10047000110178009201780064805100890f5000ca
:100480000300310012009000800878000700370058
:100490000900410080087800920190001300980044
:1004a0001100780012881400090978009101780081
:1004b0001100e00004003200130090008380e80087
:1004c0000000e00001003a008000eb00b1c18800ac
:1004d0000280e800010037000000eb004f04be007e
:1004e000000006000004780006003700820041008a
:1004f000e0c18000e10078000200e800d0c188007f
:1005000001000100d2c18000f0c18000800f5100c5
:10051000f6ff390080732100e0c18800200220002e
:10052000f0c18800080078003a0007000000e000f1
:10053000300032008080e90091027800e38f5200a1
:100540002c0036000508a3002a003a00c2c1800032
:100550000200e00002003200828f500004003100ef
:1005600002087800c1c18800160037000301780036
:10057000920190000300e00002003200818f5100e0
:10058000faff39001202780004004100808f500009
:1005900018003900810f500003003a00050942009d
:1005a00082007800070037000300e00003003200fb
:1005b00005804000808f51000e00390093009800a4
:1005c00011019800110190000200e00009003200c2
:1005d00011804000820f500006003a003638ef00cc
:1005e0001100900011017800900841001000900067
:1005f00090009800000006000000e00003003400b6
:100600000c000700e10f400001003a000000eb0081
:10061000000006000c02e20004003d000f42ab00a7
:10062000020032000f02ab00feff32000040da0091
:10063000feff3700889fbe008004780080c28000e3
:100640000000e00003003a00100007000000e00096
:100650000a00350080c280000900e00002003a0074
:10066000000478000600370000047800090040000c
:10067000060007000000e00001003d000084eb00e0
:10068000080078004f04be000000060080007800db
:100690000000e00004003a002085210080c28800ac
:1006a00001017800060037000081eb0020a5210041
:1006b000808f500002003e0081c288000001eb00e4
:1006c0000200780000000600839f68000100e0003f
:1006d00002003d0060001000e08018000300e00010
:1006e00002003d0060011100e081190025010700b2
:1006f0004f00e00002003b0060001000e0801800a6
:1007000000000600889fbe008a9fbe000105780099
:100710000100e0000400350008003c000000e0009b
:10072000200032000500370060001000e080180053
:1007300002003b0001f02c001a0037000004be004c
:100740006011b8006b0920000982cf000200390057
:100750000882cf000441b000694252000e0032000e
:1007600008003b0082817100610164008904d100ae
:100770000884d3008b05e8000442e800f9ff3a0042
:10078000050037000804440089844c008b05e9000b
:100790000442e900fbff3a000a0107000af0a70043
:1007a00001f0a0004f05be004f04be00000006008f
:1007b000889fbe008a9fbe008c1f7800270107001b
:1007c0002e01330003866c006450e10024003200e7
:1007d0006420e100270032006150e1002200320075
:1007e0006120e100210032008b854200eb07b1005f
:1007f0000134b800003ab8000804420089844a0075
:10080000013ab8000030b8008880400009014a0071
:1008100004003300000040008180480002014900cc
:100820008b05e900c909dd00830170000100320079
:1008300013002000c814de004814dd004709de0064
:100840001200b200c808de0008847000dd00070056
:1008500001f0a1000cf0a70001f0a000100137008a
:100860006120e100120132000801be000200be005a
:10087000f7ff37006150e100fcff3a000c01370040
:10088000889fbe008a9fbe008c1f7800f30007007f
:10089000fa00330003866c006450e1002e00320041
:1008a0006420e100330032006150e1002f0032008b
:1008b0006120e1003100320085855500eb07b00072
:1008c0000900200008042000050037000804440047
:1008d00089844c000a0031000603430087834b00e3
:1008e0000001530081815b00f8ff33000203be006a
:1008f0000800a0000804440089844c00f6ff390079
:10090000c639dd00830173000100320013002000ae
:100910008904d1000884d3000998a300050032009f
:100920000800a7000300a0008904d1000884d300b8
:100930008b05e8008904d1000884d3000001eb0096
:100940000281d2009f00070001f0a1000cf0a70077
:1009500001f0a000d20037006420e100d400320092
:100960000801be000200be00f7ff37006120e10071
:10097000cf0032006000b800f3ff37000000200015
:1009800001f82700f0ff370003f0a200889fbe00a7
:100990008a9fbe008c1f7800b0000700b7003300ac
:1009a0006450e1004f0032006420e1005200320048
:1009b00003826c0007003b000905d0000306d0004d
:1009c000820f54000c065d00020039000200320064
:1009d00089017800030678008582550004003d00f7
:1009e0000003fd008103fd008502ea008b854200c3
:1009f000840f720002003b0060001000e0801800cd
:100a00006011b8000005eb007a28e1000a00390007
:100a100006007800c75ddd00f707b200878075002b
:100a20002d003700828171000a01780061056000a5
:100a30008180d1000080d3008502e900f9ff3b00ee
:100a4000060440008784480002003b006004140054
:100a5000e0841c000988a300070032008a8171002d
:100a600082817100610164008904d1000884d3008f
:100a70008b05e800170037000978a30013003a003f
:100a80000b00e000130034008b05e900080444006b
:100a900089844c000a4474000978a3000d003a00d0
:100aa0000b00e000070034008b05e9000804440057
:100ab00089844c0001003a000b0020000978a30053
:100ac000f7ff32000001eb00020037008281710065
:100ad0000a0178003b0007000cf0a70001f0a0001d
:100ae0006f0037006420e10002003a00838f6c0041
:100af0006f0033000801be000200be00680037002e
:100b00000001be006d0007000470a70003f0a10003
:100b10006509b100160032000d0035006828e100bb
:100b200006003500f0ff2f00f1ff27000300e00072
:100b300013003b00010028000000050000004000f9
:100b4000818048008502e900fcff3a000800370078
:100b5000f88f420002003c008000eb00000005001e
:100b60008100d1000080d3008502e800fcff3a003c
:100b70000300e00002003b0060001000e08018006d
:100b8000000006006022b800060220000000d0002d
:100b90008180d2000482d2008582d2000000a000b1
:100ba0000202520083825a0003003b00020242000c
:100bb00083824a000000a1000603e900f3ff3a0027
:100bc0000000060081002000618055000b003d0000
:100bd0000b00200061fe2f000100e1001d00340029
:100be00082817100610164008904d1000884d3000e
:100bf0000000e800faff3a00710020006100640084
:100c0000030070000200600009003200610444002b
:100c1000e0844c000988a500050032008b05e8003f
:100c20006808e10002003a008904d1000884d3007a
:100c3000f20f20000258e10005003d00c75ddd0015
:100c4000f907b200898075000800780000000600ee
:100c50000bf827008b007800000005000004be00a0
:100c6000160007000003be000405be000200be001f
:100c700012000700844f7500000006000200be004d
:100c80006450e100050036006420e10002003600f7
:100c90000968a30001003a000800be000160a0003e
:100ca0004f0678004f05be004f04be00000006004e
:100cb000f0ff2f00f1ff2700f9ff3700c70ade0021
:100cc000f107b200f50fb20008003200e1cf420098
:100cd000020032000170a00024000500810f7000a6
:100ce000010032000408050044000500810f700077
:100cf00002003a00140005008502e90000004000ef
:100d000081c04800fcff3b000170a00024000500ea
:100d10000200fa00c800070057010700ce000700d4
:100d2000f1c0b300c0c3b300d3000700004f780088
:100d3000cd00070000c4b3009e4f100003003a002e
:100d400010c0b30044f8b700020037000040eb00c9
:100d500044f8b7000080fa00000006000000fa0026
:100d6000c4c2a900c4e2a900c522a900c582a90085
:100d7000c542a900c5a2a900c5c2a900c5e2a90033
:100d8000c0c2a900c0e2a900c122a900c182a90075
:100d9000c142a900c1a2a900c1c2a900c1e2a90023
:100da000d022a900cc22a900d042a900cc42a9009f
:100db000e2e2a900e302a900e802a900e822a900f2
:100dc000dee2a900df02a900e402a900e422a900f2
:100dd000e202a900de02a900d602a900d622a900db
:100de000d642a900d662a900d682a900d6a2a9003f
:100df000d6c2a900d6e2a900d202a900d222a90037
:100e0000d242a900d262a900d282a900d2a2a9002e
:100e1000d2c2a900d2e2a900d1a2a900cda2a90004
:100e2000e842a900e862a900e442a900e462a9003e
:100e3000de22a800dec2a800e4c2a800e4e2a80006
:100e4000e502a800e522a800d302a800d322a8004a
:100e5000d342a800d362a800d382a800d3a2a800de
:100e6000d3c2a800d3e2a800a9ff070044d8bf005e
:100e70000004e000010032004e1a07000080fa0072
:100e8000000006000000fa0044d8bf000080fb000c
:100e90000080fa00000006000c22ef000e22ef0096
:100ea0000ee2a9000ec2a9008520a9008d20a8008d
:100eb0000de2a80070002000a01088008540a90065
:100ec0008d40a80081e0a900c0048000f1002f003f
:100ed000008060000155200000804000c0048800b0
:100ee0000fe2a8000f42a8003437ef003637ef00ba
:100ef00000000600809fbe008520a9000e22a900e8
:100f00000e02ab0008003200a0b98000f003b2006e
:100f1000416f21008100400012c2bf00804878006c
:100f20003437ec00f6ff37004f00be0000400600eb
:100f3000a0b98000b1b98000010050000000060097
:100f4000a1b98000b2b980000208e10008003200b7
:100f5000f203b200416f210002814000924078000c
:100f6000014878003637ec00100020000000060031
:100f70000000eb00000006008540a900809fbe0035
:100f8000821f78002618e200150032002218e200c5
:100f9000160032002418e2001400320011c1800053
:100fa000420020000f22af00feff370020c180006a
:100fb0000000e000070032000000e90024b8b7009c
:100fc0003140780010e2b7000201e900f5ff3a0075
:100fd000020037002238ef000100370011c18800fd
:100fe0004f0178004f00be000040060000002000c6
:100ff00030c188004f0178004f00be00004006005d
:101000002618e200feff3a008d40a9008100e900a9
:1010100021c18800b04078008110880010c188008c
:101020001100200031c188008d40a800000006009a
:1010300030c18000000006000000fa0068000700d0
:101040000080fa00000006000000fa00810007009e
:101050000080fa00000006000000fa00ac00070063
:101060000080fa00000006000000fa00ae00070051
:101070000080fa00000006000400fa0020479800f3
:10108000314798000040eb00004f7800180037000f
:1010900010c0b300004f7800a90007001e4f600089
:1010a0002e409000c10107001e4f60003e4090009e
:1010b000be0107001e4f6000c30007001e4f600006
:1010c0002e4090000040e800b80107001e4f60006d
:1010d0000e00e8005f0107001e4f60002a010700b4
:1010e000db0007001e04e00003003a006200070076
:1010f0001e04e000e6ff32001e4090000000fb00ee
:101100000080fa00000006000600fa002047980060
:1011100031479800424798000040eb00004f7800ac
:101120001200370010c0b300004f780084000700a1
:101130001e4f60002e4090009c0107001e4f600073
:101140003e409000990107001e4f60004e40900005
:10115000960107001e4f6000bd0007001e4f600093
:101160001e04e00003003a00430007001e04e000f4
:10117000ecff32001e00fb000080fa0000000600b9
:101180000000fa000000370006c2bf0061406000a6
:101190000004e000fcff3a0006c2bf0064406000ab
:1011a0000004e000f8ff3a0006c2bf00684060009b
:1011b0000004e000f4ff3a0006c2bf007040600087
:1011c0000004e000f0ff3a0009c2bf000044b20092
:1011d0000004e000ecff3a000080fa000000060086
:1011e0000400fa00600920002010880007e2a9002e
:1011f00007e2a80085c0a90085a0a900b1092000c8
:101200009140780080cfb30000c060005040b30030
:101210009be0b7008da0a900007122000100200012
:10122000008fbe00040037000080eb008080eb00e0
:101230001e0f40005e9748001e00be00e00f5000e9
:10124000e08f5800f8ff3a00100020000080fa00fc
:10125000000006000000fa0007e2a90085c0a9000e
:1012600085a0a9008dc0a9008da0a90010002000b4
:101270000080fa00000006000400fa006000b800d8
:10128000008fbe0007e2a90085c0a90085a0a900c3
:101290008da0a9000000eb00401088000071220022
:1012a00001002000008fbe00040037000080eb002a
:1012b0008080eb001e0f40005e9748001e00be00bd
:1012c000e00f5000e08f5800f8ff3a00c4ff07001d
:1012d0000f0007000071220001002000008fbe00f7
:1012e000040037000080eb008080eb001e0f400000
:1012f0005e9748001e00be00e00f5000e08f5800cf
:10130000f8ff3a00100020000080fa0000000600fc
:101310000000fa0085c0a9008dc0a80010002000c0
:101320000080fa00000006000000fa0085c0a90055
:101330008dc0a900100020000080fa000000060007
:101340000600fa0010c0b30012f8b70008c2bf00d0
:10135000704060000004e000160032000602a800a1
:101360000071220001002000008fbe000a0037003b
:1013700012d8bf000004e00003003a001000200073
:10138000200798000d0037000080eb008080eb0004
:101390001e0f40005e9748001e00be00e00f500088
:1013a000e08f5800f2ff3a008000eb002107980020
:1013b000020037000000eb00200798002e0090008c
:1013c0000080fa00000006000600fa0060c0b300ca
:1013d00012f8b70008c2bf00684060000004e000d7
:1013e000160032000622a800007122000100200031
:1013f000008fbe000a00370012d8bf000004e000d2
:1014000003003a0010002000200798000d0037006c
:101410000080eb008080eb001e0f40005e974800cc
:101420001e00be00e00f5000e08f5800f2ff3a00af
:101430008000eb0021079800020037000000eb005d
:10144000200798002e0090000080fa00000006009f
:101450000600fa0050c0b30012f8b7000642a80018
:101460000071220001002000008fbe000a0037003a
:1014700012d8bf000004e00003003a001000200072
:10148000200798000a0037000080eb008080eb0006
:101490001e0f40005e9748001e00be00e00f500087
:1014a000e08f5800f2ff3a008000eb00210798001f
:1014b0002e0090000080fa00000006000600fa00ee
:1014c00030c0b30012f8b70006c2bf006140600030
:1014d0000004e00010003a0006c2bf006440600053
:1014e0000004e0000c003a0006c2bf006840600043
:1014f0000004e00008003a0006c2bf00704060002f
:101500000004e00004003a0006c2bf006240600030
:101510000004e000030032000000eb002007980008
:101520001600370006a2a9000682a800007122005a
:1015300001002000008fbe000a00370012d8bf0053
:101540000004e00003003a00110020002107980089
:101550000a0037000080eb008080eb001e0f400087
:101560005e9748001e00be00e00f5000e08f58005c
:10157000f2ff3a008000eb00210798002e00900057
:101580000080fa00000006000600fa0030c0b30038
:1015900012f8b70006c2bf00614060000004e0001e
:1015a00010003a0006c2bf00644060000004e00082
:1015b0000c003a0006c2bf00684060000004e00072
:1015c00008003a0006c2bf00704060000004e0005e
:1015d00004003a0006c2bf00624060000004e00060
:1015e000030032000000eb002007980016003700cf
:1015f00006a2a8000682a8000071220001002000b7
:10160000008fbe000a00370012d8bf000004e000bf
:1016100003003a0011002000210798000a0037005b
:101620000080eb008080eb001e0f40005e974800ba
:101630001e00be00e00f5000e08f5800f2ff3a009d
:101640008000eb00210798002e0090000080fa0037
:10165000000006000a00fa0030079800007122001e
:101660000100200010079800210798000040eb00bf
:10167000004f780040c0b30012f8b700007122009c
:101680000100200010079800210798001d00370076
:1016900006c2bf00614060000004e00013003a0091
:1016a00006c2bf00644060000004e0000f003a0082
:1016b00006c2bf00684060000004e0000b003a0072
:1016c00006c2bf00704060000004e00007003a005e
:1016d00009c2bf000044b2000004e00003003a0069
:1016e00010c0b300004f78000b0037001e009000c0
:1016f000ae00900061005000e08058001007980094
:10170000210798001e009000ae009000e00f5000ee
:10171000e08f5800deff3a001e04e00003003a00ac
:101720000000eb00400798001d0037000662a8008b
:10173000006a280011002000100798002107980077
:101740001000370012d8bf000004e00007003a0084
:1017500000c2bf00804078003e0090000148780041
:1017600010002000400798000d0037001e00900078
:10177000ae00900061005000e08058001007980013
:10178000210798001e009000ae009000e00f50006e
:10179000e08f5800ebff3a000000eb004007980094
:1017a0004e0090000080fa00000006000800fa00d9
:1017b0004047980020c0b30012f8b7004e40900098
:1017c00002e2b7000071220001002000008fbe007d
:1017d0000a00370012d8bf000004e00003003a00fe
:1017e00010002000300798000a0037000080eb004e
:1017f0008080eb001e0f40005e9748001e00be0078
:10180000e00f5000e08f5800f2ff3a008000eb003c
:10181000310798003e0090000080fa0000000600aa
:10182000801f78003400f80000c0b300a0018800d9
:101830000000fa0085c0a9000040eb0012f8b700d4
:101840000080fa003400f9004f00780000400600e4
:101850000000fa000000eb00800888000111200061
:1018600091407800f0ccb30000c0600010e1b700f8
:101870000000eb0030088800205c20006008880031
:1018800084c0a9008cc0a80011e1a8000080fa0063
:10189000000006000000fa0011e1a9000080fa0033
:1018a000000006000800fa001007980021079800c1
:1018b00030c28000000f78000b0037001e00780057
:1018c000b00090001e009000808f500003003a008e
:1018d00011002000310798001f0037001e0078001b
:1018e000c0009000010f78001e00e000f3ff3a00f6
:1018f000a0002000aafa0700000f78001e00e000f8
:1019000002003a0010002000f6fa0700ae00900036
:101910001e007800010878009e0078000000eb00af
:10192000900098009e00780010c0b300c04098005e
:101930001e0078009e0090003100980031c28000a7
:101940001e007800410098001e00780030c2880018
:1019500011002000310798003e0090000080fa003e
:10196000000006000800fa00200798000000eb00c5
:101970001007980030c28000000f78001a0037006e
:101980001e007800b00090002e009000808f500064
:1019900010003a001e0090000000e0000500320038
:1019a0001e007800c00090001e00900041009800ca
:1019b000030037001e0078004000900030c288000d
:1019c0001e007800d9fa07001100200031079800a6
:1019d000090037001e007800100798001e007800ec
:1019e000c0009000010f78001e00e000e4ff3a0004
:1019f00020002000300798003e0090000080fa0090
:101a0000000006000800fa0010079800210798005f
:101a100030c28000000f78000e0037001e007800f2
:101a2000b00090001e009000808f500006003a0029
:101a3000ae0090001e007800010878001100200020
:101a400031079800070037001e007800c0009000a2
:101a5000010f78001e00e000f0ff3a002000200097
:101a6000300798003e0090000080fa000000060059
:101a70000600fa001007980030c28000000f7800be
:101a80000e0037001e007800b00090001e0090008d
:101a9000808f500006003a009e0078000000eb00a6
:101aa00090009800110020002107980007003700df
:101ab0001e007800c0009000010f78001e00e000ba
:101ac000f0ff3a0020002000200798002e00900030
:101ad0000080fa00000006000600fa0010079800d7
:101ae00030c28000000f78000e0037001e00780022
:101af000b00090001e009000808f500006003a0059
:101b00009e0078000040eb00c040980011002000cb
:101b100021079800070037001e007800c0009000e1
:101b2000010f78001e00e000f0ff3a0020002000c6
:101b3000200798002e0090000080fa0000000600a8
:101b40000600fa001007980030c28000000f7800ed
:101b50000e0037001e007800b00090001e009000bc
:101b6000808f500006003a009e00780010c0b3003d
:101b7000c04098001100200021079800070037009e
:101b80001e007800c0009000010f78001e00e000e9
:101b9000f0ff3a0020002000200798002e0090005f
:101ba0000080fa00000006003600f800809fbe00aa
:101bb000829fbe00849fbe00869fbe003400f80056
:101bc00000c0b300a00188000200fa0030c280000b
:101bd000000f780084c0a9001e0037001e007800a6
:101be00040409000e14f500017003a001e0078007e
:101bf000100078000000e000130032001e007800a2
:101c0000100090008000e8001e007800110098008d
:101c10001e00780010009000800078001e00780000
:101c2000100078000000e900808f500006003600a8
:101c30001e00780030009000000001009e00780037
:101c40000000eb00900098001e007800c00090009b
:101c5000010f78001e00e000e0ff3a000080fa006b
:101c60003400f9004f03be004f02be004f01be001a
:101c70004f00be003600f900004006000400fa00e4
:101c8000f0bf80000000e0001f00320091bf800024
:101c900080da2f00808f50001b00350091bf80003c
:101ca00080252000808f500017003c00d602a9003c
:101cb000d622a900d642a900d662a9000000eb00f6
:101cc000f0bf880090bf80000001780012079800e4
:101cd0001e0190000200e00003003d001e01900084
:101ce0000201ea0012079800007122001e01900014
:101cf000110009000200d800ef005000e0e32000ce
:101d000040ff07004d00370090bf80000000e0005a
:101d10000c003400d0bf80000000e800d0bf880075
:101d2000b0bf80000000e900b0bf8800b0bf8000f5
:101d30000000e0000e003d0030002000b0bf880031
:101d40000b003700d0bf80000000e900d0bf880042
:101d5000b0bf80000000e800b0bf8800b0bf8000c6
:101d6000e30f5000020034000000eb00b0bf880019
:101d7000b0bf8000000f78001e017800e10f510015
:101d8000130032001e007800e10f500004003c00f8
:101d90001e0178000200e000080032001a0037003f
:101da0001e007800e20f50000e0032001e01780085
:101db000e30f51001000320013003700d602a900d3
:101dc000d622a800d642a900d662a8000e0037008d
:101dd000d602a900d622a800d642a800d662a90041
:101de00009003700d602a800d622a900d642a800d2
:101df000d662a90004003700d602a800d622a900a6
:101e0000d642a900d662a80091bf800080da2f00d8
:101e1000808f50000900350091bf80008025200090
:101e2000808f500005003c0010002000f0bf8800ab
:101e3000f1002000e0e32000f2fe07000080fa003d
:101e4000000006000400fa0000c080000000e0006e
:101e50001f003200a1bf800080da2f00808f500069
:101e60001b003500a1bf800080252000808f50001e
:101e700017003c00d682a900d6a2a900d6c2a900ac
:101e8000d6e2a9000000eb0000c08800a0bf8000df
:101e900000017800120798001e0190000200e00087
:101ea00003003d001e0190000201ea0012079800a5
:101eb000007122001e019000110009000200d800ec
:101ec000ef00500020f22000cefe07004d0037004a
:101ed000a0bf80000000e0000c003d00e0bf8000db
:101ee0000000e900e0bf8800c0bf80000000e900fa
:101ef000c0bf8800c0bf80000000e0000e003d00b1
:101f000030002000c0bf88000b003700e0bf800019
:101f10000000e800e0bf8800c0bf80000000e800cb
:101f2000c0bf8800c0bf8000e30f50000200340033
:101f30000000eb00c0bf8800c0bf8000000f780029
:101f40001e017800e10f5100130032001e007800de
:101f5000e10f500004003c001e0178000200e00088
:101f6000080032001a0037001e007800e20f50000f
:101f70000e0032001e017800e30f51001000320005
:101f800013003700d682a900d6a2a800d6c2a900a5
:101f9000d6e2a8000e003700d682a900d6a2a8007b
:101fa000d6c2a800d6e2a90009003700d682a80050
:101fb000d6a2a900d6c2a800d6e2a9000400370024
:101fc000d682a800d6a2a900d6c2a900d6e2a8004f
:101fd000a1bf800080da2f00808f500009003500fb
:101fe000a1bf800080252000808f500005003c00ac
:101ff0001000200000c08800f100200020f2200026
:1020000080fe07000080fa00000006000000fa00d1
:102010008000eb00e0e3200022fe07008000eb00e0
:1020200020f220001ffe07000080fa0000000600da
:102030000200fa00000f7800d602a900d622a900fb
:10204000d642a900d662a9001e00e00006003a00b0
:102050000000eb0090bf88008000eb00e0e3200070
:1020600068fe07002d00370080c12f009e0f100072
:102070000a003d0080c12f0090bf880092bf800001
:10208000008f2d00110009000200d80080007800a8
:10209000e0e320005bfe070020003700803e2000c8
:1020a0009e0f10000a003400803e200090bf880080
:1020b00092bf800000712200110009000200d800c8
:1020c00080007800e0e320004efe07001300370098
:1020d0001e00780090bf88001e00e00008003d0050
:1020e000008f2d001e017800110009000200d800a9
:1020f00080007800e0e3200042fe07000700370080
:10210000007122001e017800110009000200d800b1
:1021100080007800e0e320003afe07000080fa002b
:10212000000006000200fa00000f7800d682a90025
:10213000d6a2a900d6c2a900d6e2a9001e00e000de
:1021400006003a000000eb00a0bf88008000eb0012
:1021500020f220002bfe07002d00370080c12f0049
:102160009e0f10000a003d0080c12f00a0bf880014
:10217000a2bf8000008f2d00110009000200d800ce
:102180008000780020f220001efe070020003700ab
:10219000803e20009e0f10000a003400803e200088
:1021a000a0bf8800a2bf80000071220011000900ba
:1021b0000200d8008000780020f2200011fe070005
:1021c000130037001e007800a0bf88001e00e0004a
:1021d00008003d00008f2d001e017800110009004d
:1021e0000200d8008000780020f2200005fe0700e1
:1021f00007003700007122001e017800110009005d
:102200000200d8008000780020f22000fdfd0700c9
:102210000080fa00000006000800fa00000f7800b5
:10222000110798001e007800300798003e019000ca
:102230000200e00003003d003e0090000000ea00c4
:10224000300798001e019000220798002e00900091
:102250000000e00003003d002e0190000201ea00b2
:10226000220798003e0090002e019000820040005e
:10227000803e2000808f500006003c001e00900031
:102280001e0010006aff07001e0090001e004000a4
:10229000a4ff07000080fa00000006000000fa001a
:1022a000d0bf80000080fa00000006000200fa00a3
:1022b000000f78001e007800d0bf88000080fa0070
:1022c000000006000000fa00e0bf80000080fa0075
:1022d000000006000200fa00000f78001e007800df
:1022e000e0bf88000080fa00000006000600fa0047
:1022f0000000eb00000f780098fa07001e00a20013
:102300001e007800614060006140600000404000b5
:1023100000404000004040000040400000404000bd
:1023200000414000412c200091407800f0cbb300e8
:1023300000c0600002407000c4e2b7006000b80056
:1023400010079800210798000700370000000000e0
:102350001e009000ae00900061004000e080480048
:1023600010079800210798001e019000ae01900010
:10237000f0112a0071002000800f5100818f590058
:10238000f2ff34001e00a2001e00780061406000d1
:1023900061406000004040000040400000404000bc
:1023a000004040000040400000414000412c20001f
:1023b00091407800f0cbb30000c060000240700094
:1023c000c4e2b7006000b800100798002107980029
:1023d00007003700000000001e009000ae009000d3
:1023e00061004000e0804800100798002107980035
:1023f0001e019000ae019000f0112a007100200033
:10240000800f5100818f5900f2ff34000000eb0073
:102410000080fa00000006000600fa000000eb0051
:10242000000f78004dfa07001e00a2001e00780081
:10243000614060000040400000404000004040001b
:10244000004040000040400000404000804040000c
:10245000c4c2bf000074a10001407000c4e2b70014
:102460006000b800100798002107980007003700a7
:10247000000000001e009000ae00900061004000cf
:10248000e080480010079800210798001e01900086
:10249000ae019000f0112a0071002000800f510061
:1024a000818f5900f2ff34001e00a2001e00780048
:1024b000614060000040400000404000004040009b
:1024c000004040000040400000404000804040008c
:1024d000c4c2bf000074a10001407000c4e2b70094
:1024e0006000b80010079800210798000700370027
:1024f000000000001e009000ae009000610040004f
:10250000e080480010079800210798001e01900005
:10251000ae019000f0112a0071002000800f5100e0
:10252000818f5900f2ff34000000eb000080fa00b8
:10253000000006000600fa000000eb00000f780023
:1025400006fa07001e00a2001e007800614060002d
:102550006140600000414000512c20009140780013
:10256000d0cfb30000c0600002407000c5e2b700e9
:102570006000b80010079800210798000700370096
:10258000000000001e009000ae00900061004000be
:10259000e080480010079800210798001e01900075
:1025a000ae019000f0112a0071002000800f510050
:1025b000818f5900f2ff34001e00a2001e00780037
:1025c000614060006140600000414000512c2000eb
:1025d00091407800d0cfb30000c06000024070008e
:1025e000c5e2b7006000b800100798002107980006
:1025f00007003700000000001e009000ae009000b1
:1026000061004000e0804800100798002107980012
:102610001e019000ae019000f0112a007100200010
:10262000800f5100818f5900f2ff34000000eb0051
:102630000080fa00000006000600fa000000eb002f
:10264000000f7800c5f907001e00a2001e007800e8
:102650006140600061406000004040000040400078
:102660000040400000414000512c20009140780083
:10267000f0ceb30000c0600002407000c5e2b700b9
:102680006000b80010079800210798000700370085
:10269000000000001e009000ae00900061004000ad
:1026a000e080480010079800210798001e01900064
:1026b000ae019000f0112a0071002000800f51003f
:1026c000818f5900f2ff34001e00a2001e00780026
:1026d00061406000614060000040400000404000f8
:1026e0000040400000414000512c20009140780003
:1026f000f0ceb30000c0600002407000c5e2b70039
:102700006000b80010079800210798000700370004
:10271000000000001e009000ae009000610040002c
:10272000e080480010079800210798001e019000e3
:10273000ae019000f0112a0071002000800f5100be
:10274000818f5900f2ff34000000eb000080fa0096
:10275000000006000600fa000000eb00000f780001
:102760007ef907001e00a2001e0078006140600094
:10277000614060000040400000414000512c2000ba
:1027800091407800b0cfb30000c0600002407000fc
:10279000c5e2b7006000b800100798002107980054
:1027a00007003700000000001e009000ae009000ff
:1027b00061004000e0804800100798002107980061
:1027c0001e019000ae019000f0112a00710020005f
:1027d000800f5100818f5900f2ff34001e00a200cb
:1027e0001e007800614060006140600000404000d1
:1027f00000414000512c200091407800b0cfb30040
:1028000000c0600002407000c5e2b7006000b80080
:10281000100798002107980007003700000000000b
:102820001e009000ae00900061004000e080480073
:1028300010079800210798001e019000ae0190003b
:10284000f0112a0071002000800f5100818f590083
:10285000f2ff34000000eb000080fa0000000600e8
:102860000600fa000000eb00000f78003bf90700bb
:102870001e00a2001e007800614060006140600000
:102880000040400000404000004040000040400048
:1028900000414000512c200091407800f0cdb30061
:1028a00000c0600002407000c5e2b7006000b800e0
:1028b000100798002107980007003700000000006b
:1028c0001e009000ae00900061004000e0804800d3
:1028d00010079800210798001e019000ae0190009b
:1028e000f0112a0071002000800f5100818f5900e3
:1028f000f2ff34001e00a2001e007800614060005c
:102900006140600000404000004040000040400046
:102910000040400000414000512c200091407800d0
:10292000f0cdb30000c0600002407000c5e2b70007
:102930006000b800100798002107980007003700d2
:10294000000000001e009000ae00900061004000fa
:10295000e080480010079800210798001e019000b1
:10296000ae019000f0112a0071002000800f51008c
:10297000818f5900f2ff34000000eb000080fa0064
:10298000000006000600fa000000eb00000f7800cf
:10299000f2f807001e00a2001e00780061406000ef
:1029a00061406000004040000040400000404000a6
:1029b000004040000040400000414000512c2000f9
:1029c00091407800f0cbb30000c06000024070007e
:1029d000c5e2b7006000b800100798002107980012
:1029e00007003700000000001e009000ae009000bd
:1029f00061004000e080480010079800210798001f
:102a00001e019000ae019000f0112a00710020001c
:102a1000800f5100818f5900f2ff34001e00a20088
:102a20001e0078006140600061406000004040008e
:102a30000040400000404000004040000040400096
:102a400000414000512c200091407800f0cbb300b1
:102a500000c0600002407000c5e2b7006000b8002e
:102a600010079800210798000700370000000000b9
:102a70001e009000ae00900061004000e080480021
:102a800010079800210798001e019000ae019000e9
:102a9000f0112a0071002000800f5100818f590031
:102aa000f2ff34000000eb000080fa000000060096
:102ab0000600fa000000eb00000f7800a7f80700fe
:102ac0001e00a2001e00780061406000004040002f
:102ad00000404000004040000040400000404000f6
:102ae0000040400080404000c5c2bf000074a1000b
:102af00001407000c5e2b7006000b8001007980000
:102b00002107980007003700000000001e00900019
:102b1000ae00900061004000e0804800100798007f
:102b2000210798001e019000ae019000f0112a00cc
:102b300071002000800f5100818f5900f2ff340096
:102b40001e00a2001e0078006140600000404000ae
:102b50000040400000404000004040000040400075
:102b60000040400080404000c5c2bf000074a1008a
:102b700001407000c5e2b7006000b800100798007f
:102b80002107980007003700000000001e00900099
:102b9000ae00900061004000e080480010079800ff
:102ba000210798001e019000ae019000f0112a004c
:102bb00071002000800f5100818f5900f2ff340016
:102bc0000000eb000080fa00000006001000fa0090
:102bd00062f80700cf190700000037000000eb0083
:102be000f71907007007980010002000f41907007b
:102bf0006007980020002000f11907005007980096
:102c000030002000ee190700400798004000200027
:102c1000eb1907003007980050002000e819070062
:102c20002007980060002000e519070010079800b1
:102c300070002000e2190700000f7800fe009000ed
:102c40006e009000808f500019003400fe0090004c
:102c50005e009000808f500015003400fe00900050
:102c60004e009000808f500011003400fe00900054
:102c70003e009000808f50000d003400fe00900058
:102c80002e009000808f500009003400fe0090005c
:102c90001e009000808f5000050034007e009000e0
:102ca0009e0f50000200340090fd0700cbff37005c
:102cb000ee0090007e009000808f500019003400dc
:102cc000ee0090005e009000808f500015003400f0
:102cd000ee0090004e009000808f500011003400f4
:102ce000ee0090003e009000808f50000d003400f8
:102cf000ee0090002e009000808f500009003400fc
:102d0000ee0090001e009000808f500005003400ff
:102d10006e0090009e0f500002003400befd0700c0
:102d2000aeff3700de0090007e009000808f5000e4
:102d300019003400de0090006e009000808f50007b
:102d400015003400de0090004e009000808f50008f
:102d500011003400de0090003e009000808f500093
:102d60000d003400de0090002e009000808f500097
:102d700009003400de0090001e009000808f50009b
:102d8000050034005e0090009e0f500002003400e9
:102d9000e8fd070091ff3700ce0090007e00900014
:102da000808f500019003400ce0090006e0090001b
:102db000808f500015003400ce0090005e0090001f
:102dc000808f500011003400ce0090003e00900033
:102dd000808f50000d003400ce0090002e00900037
:102de000808f500009003400ce0090001e0090003b
:102df000808f5000050034004e0090009e0f500060
:102e0000020034000cfe070074ff3700be00900083
:102e10007e009000808f500019003400be009000aa
:102e20006e009000808f500015003400be009000ae
:102e30005e009000808f500011003400be009000b2
:102e40004e009000808f50000d003400be009000b6
:102e50002e009000808f500009003400be009000ca
:102e60001e009000808f5000050034003e0090004e
:102e70009e0f50000200340079fe070057ff370014
:102e8000ae0090007e009000808f5000190034004a
:102e9000ae0090006e009000808f5000150034004e
:102ea000ae0090005e009000808f50001100340052
:102eb000ae0090004e009000808f50000d00340056
:102ec000ae0090003e009000808f5000090034005a
:102ed000ae0090001e009000808f5000050034006e
:102ee0002e0090009e0f500002003400a5fe070047
:102ef0003aff37009e0090007e009000808f5000c7
:102f0000190034009e0090006e009000808f5000e9
:102f1000150034009e0090005e009000808f5000ed
:102f2000110034009e0090004e009000808f5000f1
:102f30000d0034009e0090003e009000808f5000f5
:102f4000090034009e0090002e009000808f5000f9
:102f5000050034001e0090009e0f50000200340057
:102f6000d3fe07001dff37007e0090009e0f10006b
:102f7000140034006e0090009e0f10001100340009
:102f80005e0090009e0f10000e0034004e00900076
:102f90009e0f10000b0034003e0090009e0f1000aa
:102fa000080034002e0090009e0f10000500340031
:102fb0001e0090009e0f100002003400cbfc0700a2
:102fc00006ff3700e3fd070004ff37000000fa00aa
:102fd000c0e02f0016fc0700401f200051fc070036
:102fe0000080fa00000006000400fa00607e210064
:102ff0005cfa0700401f20000dfc0700401f200066
:1030000048fc07006000b800008fbe0005003700d4
:103010000000000010002000010020001e0f4000f2
:103020005e974800f0b32400c1042000be0f1000da
:10303000ae8f1800f6ff34000000eb00fcfb070029
:103040000000eb0037fc07000080fa0000000600db
:103050000800fa002007980031079800607e2100e0
:1030600040fa0700813e2000607e21000dfa070033
:103070006000b800008fbe000500370000000000af
:1030800010002000010020001e0f40005e97480045
:103090002e009000be009000be0f1000ae8f1800f2
:1030a000f6ff3500607e21002efa07000080fa004e
:1030b000000006000000fa00607e210029fa0700e7
:1030c0000000eb00dafb07000000eb0015fc070036
:1030d0000080fa00000006000400fa00607e210073
:1030e00020fa0700f3ff07006000b800008fbe0061
:1030f0000500370000000000100020000100200043
:103100001e0f40005e974800f0d72800b105200050
:10311000be0f1000ae8f1800f6ff34000080fa00da
:10312000000006000000fa00e6c2bf000080fb00bd
:103130004600de00614060000081fb00e7c2bf0086
:103140000080fb000000d100614060000080fb00b7
:103150000000400080007800e7c2bf0061406000ce
:103160000080fb00008040000000400080007800ec
:10317000e6c2bf000080fb004700de000080fb00cd
:103180000080400000004000000041000080fa0084
:10319000000006001200fa0080022900b1002000a1
:1031a000600798007107980000cc250051012000ad
:1031b000400798005107980000f42100d107200033
:1031c0002007980031079800a00f20000100200080
:1031d000008fbe00e1f607002ff707008bfb07000a
:1031e0009bf90700cfff0700000f98000e08900022
:1031f0000000e00002003a00f42d07006d003700e7
:103200000e089000e10f500002003a00e12d070087
:10321000680037000e089000e20f500002003a00ec
:10322000e0250700630037000e089000e30f500010
:1032300002003a000f2e07005e0037000e089000d3
:10324000e40f500007003a001e02be002e0190005d
:10325000be0190006e009000fe009000e81b070089
:10326000540037000e089000e50f500026003a0089
:103270005dff07001e02be002e019000be019000ff
:103280006e009000fe009000dd1b0700ca220700c0
:103290006e009000fe0090006dff07006e01900030
:1032a000fe019000005a2100f1ff2f0002004000b3
:1032b0008380480066ff070087ff07002e0190000b
:1032c000be019000005c240041002000020140008b
:1032d000838148001e02be006e009000fe00900038
:1032e000c71b0700ea2307003fff07006e0090009e
:1032f000fe00900056ff07006e009000fe00900058
:1033000053ff07002b0037000e089000e60f500017
:1033100002003a00a70c0700260037000e089000b4
:10332000e70f500002003a00d923070021003700c0
:103330000e089000e80f500018003a009e22070087
:103340004e009000de00900041ff070062ff070082
:103350002e009000be00900002242400f300200004
:1033600000014100818149001e02be006e009000f4
:10337000fe009000a21b0700c52307001aff0700ec
:103380006e009000fe00900031ff07006e0090007c
:10339000fe0090002eff0700060037000e08900088
:1033a000e90f500003003a006e009000fe0090000c
:1033b00027ff0700ffff37001200fa00000f780018
:1033c00011079800220798003307980044079800d7
:1033d000550798006607980040c28000000f9800cb
:1033e000000326008e089000808f500013003200ea
:1033f000000328008e089000808f500019003200d2
:10340000000323008e089000808f500001003200de
:103410001e0037006e039000de0290004e02900006
:10342000be0190002e0190009e0090001e007800ca
:10343000fa07070070079800160037006e03900027
:10344000de0290004e029000be0190002e0190001e
:103450009e0090001e0078002a090700700798005f
:103460000c0037006e039000de0290004e029000c8
:10347000be0190002e0190009e0090001e0078007a
:103480000d0d07007007980002003700b000200003
:10349000700798007e0090000080fa00000006008f
:1034a0000600fa00000f78001107980040c2800063
:1034b0002007980000032600ae009000808f500087
:1034c0000d00320000032800ae009000808f5000f5
:1034d0000d00320000032300ae009000808f5000ea
:1034e000010032000b0037009e0090001e007800a3
:1034f0003e020700070037009e0090001e00780083
:10350000cf060700030037009e0090001e007800e1
:10351000c00f07000080fa00000006000000fa005b
:1035200041c2800000032300808f50000100320060
:1035300001003700160107000080fa0000000600b5
:103540000400fa0005f60700bbf60700d1a2a900a7
:10355000400620001007980004003700000000001b
:103560001e0090000000e900100798001e00900067
:103570000000e000f9ff3a00d1a2a80040062000b8
:103580001007980004003700000000001e009000a3
:103590000000e900100798001e0090000000e00005
:1035a000f9ff3a0081e0a900f1048000f0002f004b
:1035b000808060000066200000804000f0048800e9
:1035c0008040eb00c0cdb300abf607001047980079
:1035d00011c0b300c0cdb300a7f60700004f7800bc
:1035e0001e4090000080fb000000400000004000f2
:1035f00000004000000040000000400000004000cb
:103600000000400000004000800078001e80fb00a9
:103610000080700040c2880041c280000003230087
:10362000808f500004003a008000eb000000eb00a7
:103630009bff07001000370041c2800000032600f6
:10364000808f500004003a0011002000100020007c
:1036500093ff07000800370041c2800000032800e4
:10366000808f500004003a008000eb000000eb0067
:103670008bff0700380e0700a8ff070040c280003c
:103680000080fa00000006000800fa0020079800f9
:103690003107980032c0bf000080fb00000f7800a7
:1036a0002e00900032e0b7003e0090001000ba00fb
:1036b000100798001e00780032e0b7001e0090004e
:1036c0000080fa00000006000600fa0040c28000f8
:1036d0002007980000032600ae009000808f500065
:1036e0002100320000032800ae009000808f5000bf
:1036f0002000320000032300ae009000808f5000b5
:10370000010032001e003700e1ff2f00f00720000b
:10371000ddff070063006000100798001e009000a6
:10372000e20f50000a0032009e009000e38f50002c
:103730000a0032001e009000e10f5000010032002c
:103740000900370011002000010f78000e0037003b
:1037500020002000000f78000b0037008000eb00f5
:10376000010f78000800370010002000000f7800db
:103770000500370011002000010f7800020037001b
:103780000080eb00000f78001e0078000080fa0037
:10379000000006000600fa00000f780011079800ec
:1037a00040c280002007980000032600ae00900071
:1037b000808f50000d00320000032800ae00900002
:1037c000808f50000d00320000032300ae009000f7
:1037d000808f5000010032000b0037009e009000e7
:1037e0001e0078008b030700070037009e00900042
:1037f0001e0078002f060700030037009e0090008f
:103800001e007800200f07000080fa00000006006c
:103810000600fa00004f78001147980022479800f0
:1038200040c280002007980000032600ae009000f0
:10383000808f50001000320000032800ae0090007e
:10384000808f50001100320000032300ae00900072
:10385000808f500001003200100037002e4290008f
:103860009e4190001e4190009e40780080c2b300af
:10387000c4010700090037002e4190009e409000cf
:103880001e4078002f060700040037002e419000ec
:103890009e4090001e4078001f0f07000080fa0035
:1038a000000006000600fa00008fbe0040c2800043
:1038b0002007980000032600ae009000808f500083
:1038c0000c00320000032800ae009000808f5000f2
:1038d0000b00320000032300ae009000808f5000e8
:1038e00001003200080037001e00be00bc020700c5
:1038f000050037001e00be00240607000200370046
:103900001e00be00160f07000080fa00000006002f
:103910000000fa0040c280000080fa0000000600ab
:1039200000a0fe0086a0a9001421ef000000000006
:10393000a17a8000c2f5200013002000321ce100b3
:103940000500320008003500000000000000000003
:1039500000000000f9ff3700a01680004800de00dc
:1039600080587800f5ff3700a17a8800582fec00c6
:10397000c07a80005a0fe30003003a0010002000d4
:10398000b07a88001fe1a9000080fe000040060018
:103990000200fa00b0f507000000eb00000f78000d
:1039a0000d0037009e00e800a05b21000080400071
:1039b00010407800004178009e007800a05b210054
:1039c000008040001040780080407800c0cdb300f7
:1039d000cdf507001e8fe8009e007800700d2000d6
:1039e000808f5000efff36009ff507000080fa003f
:1039f000000006000200fa00881f780096f5070014
:103a00000000eb00000f78000d0037001e04e800f6
:103a10009e007800a05b21000080400010407800ec
:103a200080407800c0cdb30093f507008040780057
:103a3000a05b210000004400014878001e8fe800d0
:103a40009e007800700d2000808f5000efff360040
:103a500085f507004f0478000080fa00000006009a
:103a60000600fa00000f78001e007800200798007a
:103a70002e009000e10f50000a0032002e0090004e
:103a8000e20f50000a0032002e0090000000e0001b
:103a90000100320009003700c0c0b300fdf5b700d7
:103aa0000900370080c0b300fdf5b70006003700fd
:103ab00020c0b300fdf5b700030037000080eb0025
:103ac00010079800020037000000eb001007980074
:103ad0001e0090000080fa00000006000400fa00ba
:103ae000000f7800400420009e0f100006003200f6
:103af000100120009e0f1000030032003003200050
:103b00009e0f100005003a001e007800edf5b7008a
:103b10000000eb0010079800020037000080eb0067
:103b2000100798001e0090000080fa0000000600b8
:103b30000400fa00000f78001e00e00015003200bb
:103b4000000220009e0f100012003200000320002f
:103b50009e0f10000f003200000420009e0f100086
:103b60000c003200000520009e0f100009003200fa
:103b7000000620009e0f1000060032000006200004
:103b80009e0f100003003200000120009e0f100065
:103b900005003a001e007800e7f5b7000000eb00d2
:103ba00010079800020037000080eb001007980013
:103bb0001e0090000080fa00000006000a00fa00d3
:103bc0002007980031079800ae0090003e0090005a
:103bd000808f5000030039000080eb004007980000
:103be0001e003700be00900030382000808f50004b
:103bf000030036000080eb004007980017003700f4
:103c00002e0090000000e900200798002e00900090
:103c1000204798002e0090004800de0030479800b2
:103c20003e009000004f78003e0090004800de000b
:103c3000104798003e409000c3f5b7002e4090001a
:103c4000c5f5b7001e409000cbf5b7001e407800c8
:103c5000cdf5b7000000eb00400798004e00900043
:103c60000080fa00000006000a00fa002007980011
:103c700031079800ae0090003e009000808f500009
:103c8000030039000080eb00400798001b0037005c
:103c9000be009000301f2000808f500003003600cf
:103ca0000080eb0040079800140037002e009000c1
:103cb000204798002e0090004800de003047980012
:103cc0003e009000004f78003e0090004800de006b
:103cd000104798003e409000c7f5b7002e40900076
:103ce000c9f5b7001e409000cff5b7001e40780020
:103cf000d1f5b7000000eb00400798004e0090009f
:103d00000080fa00000006000e00fa00300798005c
:103d10004107980052079800be0090004e009000a6
:103d2000808f5000030039000080eb00600798008e
:103d30002b003700ce009000301f2000808f5000f5
:103d4000030036000080eb00600798002400370075
:103d5000de00900030382000808f500003003600d5
:103d60000080eb00600798001d0037003e009000c7
:103d7000404798003e0090004800de005047980001
:103d80004e009000204798004e0090004800de0052
:103d9000304798005e009000104798005e00900049
:103da0004800de00004f78005e4090004bf6b70000
:103db0004e4090004df6b7003e4090004ff6b700e1
:103dc0002e40900051f6b7001e40780053f6b70021
:103dd0001e40900055f6b7000000eb006007980009
:103de0006e0090000080fa00000006000600fa0055
:103df00010079800210798001e0090000000e000c6
:103e0000060032002e0090000000e00003003200a7
:103e1000a0ccb300004f78000e0037001e009000c9
:103e20000000e00003003200a0c4b300004f78009f
:103e3000080037002e0090000000e0000300320070
:103e4000a0c8b300004f780002003700a0c0b30044
:103e5000004f78001e407800e9f5b7000080fa00b6
:103e6000000006000600fa0020479800314798003d
:103e70000000eb00000f7800100037009e00780073
:103e8000a05b210000804000904078002e40900010
:103e900080cf500008003a001e00e800a15b21001e
:103ea00001004000be409000014878000000eb0097
:103eb00020079800070037001e8fe8009e0078005a
:103ec000700d2000808f5000ecff36008080eb00ea
:103ed000210798002e0090000080fa0000000600e4
:103ee0000800fa0020479800210798000000eb0026
:103ef000000f7800110037009e007800a05b2100c1
:103f000000804000904078002e40900080cf50000c
:103f100009003a009e00e800a05b210000804000fc
:103f2000904078002e009000014878000000eb00df
:103f300030079800070037001e8fe8009e007800c9
:103f4000700d2000808f5000ebff36000080eb00ea
:103f5000300798003e0090000080fa000000060044
:103f60000200fa00004f7800114798001e409000b0
:103f7000d3f5b7001e407800d5f5b7000080fa00f1
:103f8000000006000800fa00004f78001147980072
:103f9000224798003347980044479800f0c4b30084
:103fa0009e4f1000030036000080eb0030079800a1
:103fb0000c0037001e407800d7f5b7001e40900077
:103fc000d9f5b7002e409000dbf5b7004e409000c9
:103fd000ddf5b7003e409000dff5b7000000eb00d4
:103fe000300798003e0090000080fa0000000600b4
:103ff0000400fa00008fbe001e00be004a09dd006a
:104000004600de0000007100c608de00e3f5b700e0
:104010001e00be004209dd004e00de0000007100ff
:10402000ce08de00e1f5b7000040eb00e5f5b70093
:104030000080fa00000006000200fa00004f78003d
:104040001e407800eff5b7000080fa00000006007f
:104050000200fa00000f78001e00e00005003200a8
:10406000ffd5bf0001c8b30001407000fff5b700e5
:1040700003003700ffd5bf000074a100fff5b700b3
:104080000080fa00000006000400fa00004f7800eb
:1040900011479800224798001e40780003f6b700a9
:1040a0001e40900005f6b7002e40900007f6b700be
:1040b0000080fa00000006000200fa00004f7800bd
:1040c000114798001e4078007f4060000045b00016
:1040d00009f6b7001e4090000bf6b7000080fa000a
:1040e000000006000600fa001007980041479800fb
:1040f0004e4090000000fb006300600000004000a4
:1041000000004000000040000000400000004000af
:104110008040780000c8b30000c0400091f6b700ae
:104120000000eb00000f78000d0037001e00780043
:104130000000400032052000000141001e00780010
:10414000800078001e0090000080400090407800c1
:10415000a05b210000004100014878001e0fe8002c
:104160001e007800e10f5000f0ff36000080fa00da
:10417000000006000000fa00b7f3070091d6bf0068
:104180000041780090d6bf0080407800c0cdb300d9
:10419000ddf30700b4f307002162210091407800ad
:1041a0000cd6bf00020007000080fa0000000600e5
:1041b0000600fa0040479800514798000000eb00c5
:1041c000000f7800a4f307000000eb001007980030
:1041d0001f0037009e009000a05b2100008040007f
:1041e000904078004e40900080cf5000150039007c
:1041f0009e009000a05b210000804000904078006d
:104200005e40900080cf50000e003e001e009000e7
:104210008000e800a05b2100008040001040780092
:10422000004178009e009000a05b210000804000cb
:104230001040780080407800c0cdb300b2f3070092
:104240001e0fe8001e0090000080e8001007980094
:104250009e009000700d2000808f5000ddff360022
:1042600081f307001e0078000080fa0000000600bd
:104270000400fa00100798000000eb00000f78001f
:104280000d0037001e00780000004000b20620003c
:10429000000141001e007800800078001e009000a0
:1042a0000080400090407800a05b210000004100a9
:1042b000014878001e0fe8001e007800e10f500052
:1042c000f0ff36000080fa00000006000200fa004d
:1042d000004f7800114798001e40780037f6b7006d
:1042e0001e40900039f6b7000080fa00000006007a
:1042f0000200fa00004f7800114798001e40780035
:104300003bf6b7001e4090003df6b7000080fa0073
:10431000000006000200fa00004f780011479800e4
:104320001e4078003ff6b7001e40900041f6b700ef
:104330000080fa00000006000200fa00004f78003a
:104340001e80fb0000004000000040000000400014
:10435000000040006f40400057f6b7000080fa00b0
:10436000000006000200fa00004f78001147980094
:104370001e80fb00000040000000400000004000e4
:1043800000004000804078001e4090006f406000b8
:1043900000c0400059f6b7000080fa000000060097
:1043a0000200fa00004f7800114798001e4090006c
:1043b0000080fb00000040000000400000004000c2
:1043c00000004000804078001e4078006f40600090
:1043d00000c040005bf6b7000080fa000000060055
:1043e0000400fa00008fbe001e00be004088de0000
:1043f000cf80de005df6b7001e00be004809dd007c
:104400004800de0000007100c888de005ff6b700db
:104410001e00780061f6b7000080fa000000060078
:104420000200fa00004f78001e40780063f6b700e3
:104430000080fa00000006000400fa00000f780077
:10444000110798001e0078004800de0069f6b700ea
:104450001e0078006bf6b7001e0090004800de00da
:104460006df6b7001e0090006ff6b7000080fa00ee
:10447000000006000600fa00004f7800114798007f
:1044800022479800334798004447980055479800c2
:104490002e40900071f6b7003e40900073f6b700d2
:1044a0001e40780075f6b7001e40900077f6b70002
:1044b0004e40900079f6b7005e4090007bf6b70062
:1044c0000080fa00000006000a00fa00000f7800e1
:1044d000110798002207980033079800200d20004c
:1044e0001e0f40001e009000200db0001007980025
:1044f0002e00900067004000200798003e009000ca
:1045000067004000300798009e0090002035200092
:10451000808f5000030036000080eb0040079800b9
:1045200039003700be009000701e2000808f5000c0
:10453000030036000080eb0040079800320037008f
:104540001e0090009e0f100004003100ae0090008d
:104550003e009000808f5000030039000080eb0087
:104560004007980028003700501a20009e0f1000c6
:104570000c0036009e00900090272000808f500095
:1045800008003e00ae009000700a2000808f5000ae
:1045900004003600be00900060142000808f5000a0
:1045a000030036000080eb0040079800160037003b
:1045b0001e0078004800de007df6b7001e0078007f
:1045c0007ff6b7001e0090004800de0081f6b700bd
:1045d0001e00900083f6b7002e0090004800de0019
:1045e00085f6b7002e00900087f6b7003e009000d9
:1045f0004800de0089f6b7003e0090008bf6b70059
:104600000000eb00400798004e0090000080fa0088
:10461000000006000600fa00100798002107980025
:104620001e0090000000e000060032002e00900006
:104630000000e00003003200c0c3b300004f780068
:104640000e0037001e0090000000e0000300320062
:10465000c0c2b300004f7800080037002e00900061
:104660000000e00003003200c0c1b300004f78003a
:1046700002003700c0c0b300004f78001e40780031
:104680008df6b7000080fa00000006000200fa0074
:10469000000f78001e00e00005003200f1d5bf00d9
:1046a000f1c7b30001406000f1f5b7000400370026
:1046b000f1d5bf0001c8b30001407000f1f5b700ab
:1046c0000080fa00000006000400fa00000f7800e5
:1046d000110798001e00e00005003200f1d5bf0070
:1046e000f1cbb30001406000f1f5b70004003700e2
:1046f000f1d5bf0001c4b30001407000f1f5b7006f
:104700001e0090000000e00005003200f1d5bf005f
:10471000f1cdb30001406000f1f5b70004003700af
:10472000f1d5bf0001c2b30001407000f1f5b70040
:104730000080fa00000006000a00fa00e7d5bf007a
:104740000080fb004007980000032000ce0090008e
:10475000808f50003100320000032000ce00900016
:10476000808f50000b003c004e009000f00f500076
:104770002200320000022000ce009000808f500006
:10478000220032004e0090000000e00017003200ce
:104790003600370000052000ce009000808f5000ca
:1047a0002600320000052000ce009000808f5000cf
:1047b00005003c0000042000ce009000808f5000d7
:1047c0001a0032002900370000062000ce009000b9
:1047d000808f50001d00320000072000ce009000a6
:1047e000808f50001d00320020003700000028009c
:1047f00001072000008fbe002000370000002000cd
:1048000061092000008fbe001c003700000024005a
:1048100081032000008fbe00180037000000220036
:10482000c1012000008fbe001400370000002100ed
:10483000e1002000008fbe00100037000080200043
:1048400071002000008fbe000c00370000402800df
:1048500031002000008fbe000800370000202c002f
:1048600011002000008fbe00040037006000b80077
:1048700020079800310798000a003700fdd5bf00d7
:10488000ec4f500004003a001e00be000000400043
:1048900081804800008fbe001e00be0020079800e7
:1048a000310798002e009000be0090000080fa00b2
:1048b000000006001000fa00200798003107980059
:1048c0004207980053079800640798005e00900024
:1048d0000000e000030035005e009000e30f500090
:1048e000030034000080eb00700798004d00370093
:1048f0006e0090000000e000030035006e009000a4
:10490000e30f5000030034000080eb0070079800b4
:104910004400370088ff07000001be00606a2000e5
:104920000013b8006010b9000702780000024200ce
:10493000606a20000098b9000002420084037800f9
:104940002e0090006101b9000600be005eef070076
:104950001007980078ff07000001be00606a200081
:104960000013b8006010b90007027800000242008e
:10497000606a20000098b9000002420084037800b9
:104980003e0090006101b9000600be004eef070036
:10499000000f78001e0090004800de00f5f5b7001b
:1049a0001e009000f7f5b7001e0078004800de00fa
:1049b000f9f5b7001e007800fbf5b7004e00900037
:1049c0000000e00004003200f1d5bf000044a00068
:1049d000f1f5b70004003700f1d5bf00f1ceb30008
:1049e00001406000f1f5b7006e009000e340600008
:1049f0005e00900063006000000040000000400086
:104a000000c14000f1d5bf008040780000cfb30066
:104a100000c0600000404100f1f5b7000000eb006d
:104a2000700798007e0090000080fa0000000600e9
:104a30000200fa00004f780087f107001e4178005d
:104a400031c0b300c0cdb300aff1070086f107005d
:104a50000080fa00000006000400fa00004f780011
:104a600011479800224798001e407800f0ff070089
:104a700079f107002e4190009e409000c0cdb30018
:104a8000a1f1070078f107000080fa00000006009d
:104a90000400fa0020479800314798002e4090000b
:104aa000e3ff07006cf10700be409000c0cdb300eb
:104ab00071f10700004f78006bf107001e80fb00ca
:104ac0000080fa00000006000200fa00004f7800a3
:104ad0001e41780011c9b3000040eb00deff070063
:104ae0000080fa00000006000200fa00004f780083
:104af0001e41780081c6b30010c0b300d6ff070086
:104b00000080fa00000006000600fa00004f78005e
:104b10001e80fb002007980000042000ae009000db
:104b2000808f50001a00320000082000ae00900074
:104b3000808f50002700320000022000ae0090005d
:104b4000808f5000010032003300370010c0b300e6
:104b5000e5ff07001e41780001c8b30010c0b30094
:104b6000bdff07001e41780011c8b30010c0b3009c
:104b7000b9ff070012c0b30021c8b30010c0b300d2
:104b8000b5ff07000000eb00100798002400370075
:104b900030c0b300d4ff07001e41780001c8b30045
:104ba00010c0b300acff07001e41780011c8b3006d
:104bb00010c0b300a8ff070012c0b30021c8b300a3
:104bc00010c0b300a4ff07008000eb00110798009d
:104bd0001300370070c0b300c3ff07001e41780008
:104be00001c8b30010c0b3009bff07001e4178004e
:104bf00011c8b30010c0b30097ff070012c0b30084
:104c000021c8b30010c0b30093ff07000000eb0001
:104c100010079800020037008080eb001107980011
:104c20001e0090000080fa00000006000600fa0056
:104c3000004f78001e80fb00200798000004200031
:104c4000ae009000808f50001a0032000008200053
:104c5000ae009000808f500027003200000220003c
:104c6000ae009000808f500001003200330037000a
:104c70000040eb009cff07001e41780001c8b30014
:104c800010c0b30074ff07001e41780011c8b300c4
:104c900010c0b30070ff070012c0b30021c8b300fa
:104ca00010c0b3006cff07000000eb001007980075
:104cb0002400370010c0b3008bff07001e417800ae
:104cc00001c8b30010c0b30063ff07001e417800a5
:104cd00011c8b30010c0b3005fff070012c0b300db
:104ce00021c8b30010c0b3005bff07008000eb00d9
:104cf000110798001300370030c0b3007aff070097
:104d00001e41780001c8b30010c0b30052ff070075
:104d10001e41780011c8b30010c0b3004eff070059
:104d200012c0b30021c8b30010c0b3004aff07008f
:104d30000000eb0010079800020037008080eb00b5
:104d4000110798001e0090000080fa000000060085
:104d50000600fa00004f7800114798001e80fb0003
:104d6000200798002e009000e10f50000f00320045
:104d70002e009000e20f5000140032002e00900030
:104d80000000e0000100320018003700d2c0b3007c
:104d900081c3b30010c0b3002fff07001e40900076
:104da00059ff0700100798001200370082c0b300b7
:104db00081c3b30010c0b30027ff07001e4090005e
:104dc0009aff0700100798000a00370022c0b300be
:104dd00081c3b30010c0b3001fff07001e40900046
:104de00092ff070010079800020037000080eb00d8
:104df000100798001e0090000080fa0000000600d6
:104e00000a00fa002007980031079800ae009000d1
:104e10003e009000808f5000030039000080eb00be
:104e2000400798001e003700be009000f0312000bf
:104e3000808f5000030036000080eb004007980090
:104e4000170037002e0090000000e90020079800ae
:104e50002e009000204798002e0090004800de00b1
:104e6000304798003e009000004f78003e009000d0
:104e70004800de00104798002e41900011c5b30095
:104e800010c0b300f4fe07003e41900001c5b3001e
:104e900010c0b300f0fe07000000eb0040079800d0
:104ea0004e0090000080fa00000006000800fa00a2
:104eb00020079800310798000000eb000080fa00fe
:104ec000000006000a00fa00200798003107980049
:104ed000ae0090003e009000808f5000030039002b
:104ee0000080eb004007980023003700be009000d0
:104ef000301f2000808f5000030036000080eb0040
:104f0000400798001c0037002e00900020479800b2
:104f10002e0090004800de00304798003e009000d0
:104f2000004f78003e0090004800de0010479800d7
:104f30003e41900001c6b30010c0b300c6fe07009a
:104f40002e41900011c6b30010c0b300c2fe07008e
:104f50001e41900021c6b30010c0b300befe070082
:104f60001e41780031c6b30010c0b300bafe07007e
:104f70000000eb00400798004e0090000080fa000f
:104f8000000006000200fa00000f780012c0b30013
:104f9000a1c5b30020c0b300affe070012c4b30028
:104fa00021c3b30010c0b300abfe07001e00e00039
:104fb00011003a0000c1eb0081c8b30010c0b3007b
:104fc000a5fe070000c1eb0091c8b30010c0b300fc
:104fd000a1fe070082c0b300a1c8b30010c0b30097
:104fe0009dfe070000c1eb00b1c8b30010c0b300c4
:104ff00099fe07001000370002c2b30081c8b30059
:1050000010c0b30094fe070002c8b30091c8b300fb
:1050100010c0b30090fe070082c0b300a1c8b30067
:1050200010c0b3008cfe070000c1eb00b1c8b30094
:1050300010c0b30088fe07000080fa0000000600e0
:105040000600fa00100798002107980001c9b30074
:105050000040eb008efe0700004f78001e0090001d
:105060000000e0000300320000c8b3001e4f7000d3
:1050700002003700f0c7b3001e4f60002e00900002
:105080000000e0000300320000c4b3001e4f7000b7
:1050900002003700f0cbb3001e4f60001e417800c5
:1050a00001c9b3000040eb006bfe07000080fa006e
:1050b000000006000600fa0010079800210798007b
:1050c00080c9b300004f78001e0090000000e0008f
:1050d00001003a001e24a0002e0090000000e00015
:1050e0000a003a001e04a0000041eb0051c5b300c5
:1050f00020c0b30058fe07000041eb0061c5b300bb
:1051000020c0b30054fe07000800370082c0b3007f
:1051100051c5b30020c0b3004ffe0700c2c0b300aa
:1051200061c5b30020c0b3004bfe07001e417800ec
:1051300041c0b30020c0b30047fe07000080fa0062
:10514000000006000400fa00004f780011479800a4
:10515000224798001e41780041cab30020c0b30026
:105160003dfe07001e41900051cab30020c0b300ad
:1051700039fe07002e41900061cab30020c0b30081
:1051800035fe07000080fa00000006000400fa0067
:10519000008fbe001e00be004808de000100200097
:1051a00000417800c1c2b30020c0b3002afe07004e
:1051b0001e00be004008de00010020000041780013
:1051c000d1c2b30020c0b30023fe07001e00be0002
:1051d0004809dd004800de0000007100c808de005c
:1051e00000417800e1c2b30020c0b3001afe0700fe
:1051f0001e00780000417800f1c2b30020c0b30067
:1052000015fe07000080fa00000006003400f800d8
:10521000881f780008c0b300a80188004f047800f8
:105220000000fa0086c0a9001fe1a80021e1a90042
:105230000080fa003400f900004006000000fa0087
:1052400020002000000988000000eb00c008880052
:1052500010002000e008880086c0a9008ec0a800c9
:1052600021e1a8000080fa00000006000000fa001a
:1052700020002000f0088800907a8000a0088800b4
:10528000907a80000000e800d008880086a0a9007d
:105290001fe1a9008ea0a8000080fa00000006000f
:1052a0000200fa00000f78000000eb00c07a8800ce
:1052b0001e007800a07a88000000eb00b07a880019
:1052c000eaff0700ddff07000080fa00000006008b
:1052d0001200fa0030079800410798005207980022
:1052e00063079800740798000000eb00100798000f
:1052f000ce0090005e0090000088b9008000780029
:105300006e0090000000e8000088b9000000e8008e
:1053100080007800a0142000808f50000300360029
:105320000080eb00000f9800350037000000eb0014
:1053300020079800230037000000eb00000f7800e2
:10534000090037009e009000c0f5200080804000da
:1053500010c0b300804878001e0090000000e800f4
:10536000100798001e0fe8005e0090009e0f1000ce
:10537000f4ff35000000eb00000f78000900370053
:105380009e009000c0f52000808040000040eb00af
:10539000804878001e0090000000e8001007980088
:1053a0001e0fe800ee0090005e0090000088b9003b
:1053b0009e0f5000f2ff3c002e0090000000e8001d
:1053c00020079800ae0090004e009000808f5000a3
:1053d000d9ff35009e009000c0f52000808040007d
:1053e00020c0b300804878007e009000907a88004a
:1053f0003e009000d07a88000000eb00000f98007b
:105400000e0890000080fa00000006000000fa007c
:10541000b07a80000080fa00000006002200fa0046
:1054200070079800010f9800120f9800230f980042
:10543000340f9800450f9800560f98007e0090009a
:10544000200db000700798000e0890006700400023
:10545000000f98004e0890000000e00003003200aa
:105460003e0890000000e00003003a000080eb00de
:10547000600f980004013700fe0090001e089000a5
:105480008080400020352000808f500003003600cf
:105490008080eb00610f9800fb0037008e089000c1
:1054a0002e08900080804000701e2000808f5000e9
:1054b000030036000080eb00600f9800f200370018
:1054c0001e0890003e099000110009000280d800db
:1054d0008000fd000000e000030032008080eb004f
:1054e000610f9800e80037002e0890004e099000e8
:1054f000110009000280d8008000fd000000e000db
:10550000030032000080eb00600f9800de003700df
:105510004e089000630060000000e00033003a0095
:105520003e089000630060000000e0000f003a00b9
:1055300030032000000f78004e0890004200de008b
:10554000200798003e0890004200de0010079800f7
:105550000e08900064005000000f98007e0090003c
:105560006400500070079800500037003e0890001b
:10557000610060000000e0000f003a001001200010
:10558000000f78004e0890000000d100200798001e
:105590003e0890000000d100100798000e0890000f
:1055a0000080e900000f98007e0090000080e90074
:1055b000700798003d00370040042000000f78007d
:1055c000ce089000210798003e0890001007980030
:1055d0000e0890000000e900000f98007e00900087
:1055e0000000e90070079800300037004e08900076
:1055f000610060000000e00020003a003e089000da
:10560000610060000000e0000f003a00100120007f
:10561000000f78004e0890000000d100200798008d
:105620003e0890000000d100100798000e0890007e
:105630000080e900000f98007e0090000080e900e3
:10564000700798001900370040042000000f780010
:10565000ce089000210798003e089000100798009f
:105660000e0890000000e900000f98007e009000f6
:105670000000e900700798000c003700400420008b
:10568000000f7800be089000110798004e089000a7
:10569000200798000e0890000000e900000f980015
:1056a0007e0090000000e900700798001e00900046
:1056b0000000e900500798002e0090000000e9006b
:1056c000600798001e0890003e0990001100090034
:1056d0000280d800400798002e0890004e099000e4
:1056e000110009000280d800300798005e08900081
:1056f000dbf807000000e000030032008080eb00d0
:10570000610f9800600037001e007800f3f8070072
:105710000000e000030032000080eb00600f980002
:10572000590037005e0890000000e00017003a00c2
:105730009e007800710f980030032000fe08900052
:10574000808f50000e00320040042000fe089000c0
:10575000808f5000040032007e089000f10f50004e
:10576000040032001f00370000032000f0f807009b
:105770001c00370000022000edf807001900370078
:105780000000eb00eaf80700160037009e007800e2
:1057900001179800300320008e109000808f500079
:1057a0000e003200400420008e109000808f5000c8
:1057b000040032000e109000f10f5000040032007f
:1057c0000800370000042000d9f807000500370062
:1057d00000032000d6f80700020037000002200076
:1057e000d3f80700313520007e009000f3f8070061
:1057f0000000e000030032008080eb00610f9800a1
:1058000021003700811e20000e08900016f90700c5
:105810000000e000030032000080eb00600f980001
:10582000190037007e0090000001e800711e200082
:105830000e08900034f907000000e0000300320079
:105840008080eb00610f98000f0037005e08900029
:1058500010000700000178006e029000de01900049
:10586000ce0090003e00900099fe07000000e0008e
:10587000030032000080eb00600f98000200370048
:105880008000eb00610f98006e0890000080fa0025
:10589000000006000600fa00000f78001e007800e5
:1058a000200798002e009000e10f50000a003200ff
:1058b0002e009000e20f50000a0032002e009000ef
:1058c0000000e00001003200090037001000200055
:1058d00010079800080037002000200010079800eb
:1058e0000500370020002000100798000200370054
:1058f00010002000100798001e0090000080fa00a1
:10590000000006002400fa00000f9800110f980014
:10591000220f9800330f9800440f9800550f9800fd
:10592000660f98000e08900070004000000f98006d
:105930001e08900068004000100f98005e0890005c
:105940000000e000030032004e0890000000e0007c
:1059500003003a000080eb00700f98001f01370031
:105960008e0890002e08900080804000002d2000be
:10597000808f5000030036008080eb00710f98008c
:10598000160137009e0890003e089000808040007d
:10599000801e2000808f5000030036000080eb0046
:1059a000700f98000d0137002e0890004e099000ee
:1059b000110009000280d8008000fd000000e00016
:1059c000030032008080eb00710f98000301370064
:1059d0003e0890005e099000110009000280d80086
:1059e0008000fd000000e000030032000080eb00ba
:1059f000700f9800f90037005e08900063006000a7
:105a00000000e00039003a004e089000630060009a
:105a10000000e00011003a0000082000000f7800ac
:105a200040002000100798005e0890004200de0051
:105a3000300798004e0890004200de0020079800d2
:105a40001e08900064005000100f98000e0890008f
:105a500064005000000f98005a0037004e08900074
:105a6000610060000000e00011003a000004200026
:105a7000000f780020002000100798005e089000ba
:105a80000000d100300798004e0890000000d100bf
:105a9000200798001e0890000080e900100f980071
:105aa0000e0890000080e900000f980045003700c4
:105ab00000022000000f780010002000100798005e
:105ac000de089000310798004e08900020079800eb
:105ad0001e0890000000e900100f98000e089000ca
:105ae0000000e900000f9800360037005e089000c3
:105af000610060000000e00024003a004e089000c1
:105b0000610060000000e00011003a000004200085
:105b1000000f780020002000100798005e08900019
:105b20000000d100300798004e0890000000d1001e
:105b3000200798001e0890000080e900100f9800d0
:105b40000e0890000080e900000f98001d0037004b
:105b500000022000000f78001000200010079800bd
:105b6000de089000310798004e089000200798004a
:105b70001e0890000000e900100f98000e08900029
:105b80000000e900000f98000e0037001000200010
:105b90001007980000022000000f7800ce08900047
:105ba000210798005e089000300798001e089000ba
:105bb0000000e900100f98000e0890000000e900b6
:105bc000000f98002e0090000000e9006007980088
:105bd0003e0090000000e900700798002e08900039
:105be0004e099000110009000280d800500798006b
:105bf0003e0890005e099000110009000280d80064
:105c000040079800102d20001e019000110009008f
:105c10000200d800800078001e0190000e0890005d
:105c2000811f7800110009000280d800010178006e
:105c3000cf00780072fc07000000e0000300320093
:105c40008080eb00710f980064003700901e2000e8
:105c50001e019000110009000200d80080007800a9
:105c60001e0190001e089000811f7800110009009d
:105c70000280d80001017800cf0078008bfc07007b
:105c80000000e000030032000080eb00700f98007d
:105c900052003700811e20001e08900089fc07007a
:105ca0000000e000030032008080eb00710f9800dc
:105cb0004a0037006e0890000000e00018003a002b
:105cc0001e00780000179800000420008e1090003d
